S0160000636F6E74726F6C6C65725F6D696E2E7372656327
S113000030C04AC049C048C047C046C045C044C0CB
S113001043C042C041C09FC33FC03EC03DC03CC07E
S11300203BC03AC039C038C037C036C035C034C010
S113003059C332C031C030C02FC02EC05EC142C1CE
S113004095C19FC13FC1F0C13DC1F4C1FCC11BC2F8
S113005039C138C137C136C135C134C11DC232C1FD
S113006046C111241FBECFEFD2E0DEBFCDBF11E0E9
S1130070A0E0B1E0E4E6FCE002C005900D92A033FC
S1130080B107D9F721E0A0E3B1E001C01D92A43388
S1130090B207E1F77ED2E4C5B3CFCF9362307105E6
S11300A0E4F0FB013297E80FF91FA2E0B0E00EC0C4
S11300B0C05DC083C4E05695479537952795CA958A
S11300C0D1F7119631976A177B073CF0C22FCF7096
S11300D0CA3070F3C95CC083EDCFFC01E60FF71F93
S11300E031971082CF9108954F925F926F927F92D1
S11300F08F929F92AF92BF92CF92DF92EF92FF9234
S11301000F931F93CF93DF932B013C015A0120E0FF
S113011030E0A901EBD387FD6FC08BE2F50180834A
S1130120C12CD12CD0E2ED2ED1E4FD2EC1E0D0E0E3
S113013010E3812E0EE2902EA7019601C301B201B5
S1130140D5D387FF28C0F501EC0FFD1F80828E01F7
S11301500F5F1F4F20E030E040E251E4C701B601D9
S1130160C9D36B017C01073011059CF52DEC3CECE7
S11301704CEC5DE3C701B601B9D3811128C0F50188
S1130180E00FF11F90822296A7019601C301B201EC
S1130190ADD387FDD8CFA7019601C301B201AAD37D
S11301A011D4F501EC0FFD1F20E3260F20838827CF
S11301B077FD8095982F39D4A7019601E6D49B0149
S11301C0AC01C301B2012DD32B013C01C0CFE80126
S11301D0B3CFF5011782DF91CF911F910F91FF905B
S11301E0EF90DF90CF90BF90AF909F908F907F90D3
S11301F06F905F904F9008958DE2F501808377FAB8
S1130200709477F870948CCFCF93C82FD89A8AE0E3
S113021090E093D28C2FF0D282E090E0CF918DC207
S11302200F931F93CF93DF93EC018C0116161706DF
S113023044F4060F171FEED28993E6DFC017D107E7
S1130240D1F7F8011082DF91CF911F910F9108959A
S11302500F931F93CF93DF93EC01D89A8AE090E039
S11302606CD288818823A1F08E010F5F1F4FC0E0FC
S1130270D0E0C2D22196F80181918F018111F9CF8A
S1130280CE01880F991FDF91CF911F910F9155C215
S113029080E090E0F8CFCF92DF92EF92FF920F933D
S11302A01F93CF93DF93CDB7DEB72A970FB6F89499
S11302B0DEBF0FBECDBF90E0FC01E154F109E33194
S11302C0F10590F082E0809330012A960FB6F894FD
S11302D0DEBF0FBECDBFDF91CF911F910F91FF9075
S11302E0EF90DF90CF900895E25EFF4F099483E58D
S11302F08BDF8EE091E0ACDFE8CF81E485DF64E062
S113030070E0CE0101968CDF8EE091E0A1DFFE016A
S113031031969E012B5F3F4F80E090E0DC01AC0101
S1130320BD01440F551F661F771F440F551F661FDD
S1130330771F440F551F661F771F440F551F661FF5
S1130340771F81918A3308F0ADC090E0C097AA2747
S113035097FDA095BA2F842B952BA62BB72BE217CC
S1130360F307E9F697709BBD8ABDAFCF83E44CDFFA
S113037062E070E0CE01019653DF8EE091E068DF29
S1130380A4CF84E441DF14D28C0160910C0170E0AD
S113039080E090E04AD36B017C01B80180E090E0FA
S11303A042D320E030E040E85AE3EFD32DEC3CECBC
S11303B04CE85FE3EAD320E030E040E05FE331D291
S11303C020E030E048EC52E4E0D320E030E048ECB8
S11303D051E427D29B01AC01C701B601D6D36B010E
S11303E07C01609108017091090180910A0190914A
S11303F00B0119D39B01AC01C701B60113D220E054
S113040030E040EA50E476D2E2D29B0140E050E092
S113041065E070E0CE01019640DECE01019618DF62
S11304208EE091E015DF51CF86E4EEDE8EE091E0C0
S11304300FDF4BCF88E4E8DE82E191E009DF8EE054
S113044091E006DF42CF89E4DFDEB2D1BC0180E077
S113045090E0E9D220E030E040E85AE396D32DEC76
S11304603CEC4CE85FE391D320E030E040E05FE314
S1130470D8D120E030E048EC52E487D3AE014F5F9E
S11304805F4F32DECACF8AE4BFDE92D19C0140E0E6
S113049050E064E070E0BECF81E5B6DE8EE091E02E
S11304A0D7DE13CF90E0C797AA2797FDA095BA2F60
S11304B0842B952BA62BB72B52CFCF92DF92EF92A2
S11304C0FF92CF93DF9374D1EC0160910C0170E043
S11304D080E090E0AAD26B017C01BE0180E090E054
S11304E0A2D220E030E040E85AE34FD32DEC3CECBC
S11304F04CE85FE34AD320E030E040E05FE391D191
S113050020E030E048EC52E440D320E030E048EC16
S113051051E487D19B01AC01C701B60136D36B010D
S11305207C01609108017091090180910A01909108
S11305300B0179D29B01AC01C701B60173D120E054
S113054030E040EA50E4D6D142D280E090E06BD271
S113055020E030E040EA50E418D3209100013091CB
S1130560010140910201509103015BD120910401EA
S1130570309105014091060150910701BBD127D26A
S11305807BBD6ABDDF91CF91FF90EF90DF90CF905C
S11305900895CF93DF93CDB7DEB72A970FB6F894BB
S11305A0DEBF0FBECDBFF894A8D00DD1F6D078949D
S11305B081E08ABBD89820910D0130E040E050E002
S11305C063E070E0CE01019668DDCE01019640DE65
S11305D08EE091E03DDE02E011E015D1811104C00E
S11305E06CDF11D18823E1F312D190913001913065
S11305F051F008F44FC0923099F78E3309F446C095
S11306004ADE5BDFEECF90ED980F9A3020F09FEB3F
S1130610980F9630D8F58983FDD08A8349814A336F
S113062008F458C050E047535109662757FD6095B8
S1130630762F440F551F661F771F440F551F661FE3
S1130640771F440F551F661F771F440F551F661FE2
S1130650771FC82ED12C8A3388F187E3C81AD108B2
S1130660EE24D7FCE094FE2CC42AD52AE62AF72AE5
S1130670A701960133274427552763E070E0CE0194
S113068001960BDD80910D018C1551F01092300113
S113069014DFA7CF8C3359F4109330010EDFA1CFB0
S11306A000933001CE010196D3DD07DF9ACF10927B
S11306B0300182E090E041D000DF93CF80E3C81A9C
S11306C0D108EE24D7FCE094FE2CC42AD52AE62ACD
S11306D0F72ACECF50E040535109662757FD609565
S11306E0762FA7CF1F920F920FB60F921124D8988E
S11306F00F900FBE0F901F90189510BE81E083BF1E
S113070089B7816089BF12BE20E82FBD8FB5826092
S11307108FBD88E18EBD8EB581608EBD1DBC1CBCB5
S11307201BBC1ABC8FEF97E095BD84BDBA9A80E4D8
S1130730809368002093660008951092330110920C
S11307403201109231012091310130913201281788
S11307503907CCF308951F920F920FB60F9211240C
S11307608F939F93809133018F5F809333018091A6
S11307703301843059F41092330180913101909106
S11307803201019690933201809331019F918F91B0
S11307900F900FBE0F901F9018958BE089B981E0E0
S11307A08093610080E288B986E085B92F9A089524
S11307B02E9A2E99FECF26B187B190E0982F8827E4
S11307C0820F911D0895109282008CE08093810025
S11307D082E08093860088E58093850086E080939C
S11307E084008091860087FF06C0809180008091FC
S11307F0860087FDFACF08959091860095FFFCCF7F
S11308008093800008958091860080780895809177
S1130810800008958091860087FFFCCF809180003E
S113082008955058BB27AA270ED075C166D130F061
S11308306BD120F031F49F3F11F41EF45BC10EF430
S1130840E095E7FB51C1E92F77D180F3BA1762072E
S113085073078407950718F071F49EF58FC10EF4A1
S1130860E0950B2EBA2FA02D0B01B90190010C01BC
S1130870CA01A0011124FF27591B99F0593F50F4D4
S1130880503E68F11A16F040A22F232F342F44272C
S1130890585FF3CF469537952795A795F040539524
S11308A0C9F77EF41F16BA0B620B730B840BBAF0F4
S11308B09150A1F0FF0FBB1F661F771F881FC2F75F
S11308C00EC0BA0F621F731F841F48F48795779573
S11308D06795B795F7959E3F08F0B3CF9395880F2A
S11308E008F09927EE0F979587950895D9D008F4C5
S11308F081E008950CD00FC107D140F0FED030F054
S113090021F45F3F19F0F0C0511139C1F3C014D183
S113091098F39923C9F35523B1F3951B550BBB27C2
S1130920AA2762177307840738F09F5F5F4F220F6F
S1130930331F441FAA1FA9F333D00E2E3AF0E0E868
S113094030D091505040E695001CCAF729D0FE2FB4
S113095027D0660F771F881FBB1F26173707480746
S1130960AB07B0E809F0BB0B802DBF01FF279358FC
S11309705F4F2AF09E3F510568F0B6C000C15F3F4B
S1130980ECF3983EDCF3869577956795B795F795E4
S11309909F5FC9F7880F911D9695879597F90895DC
S11309A0E1E0660F771F881FBB1F62177307840778
S11309B0BA0720F0621B730B840BBA0BEE1F88F787
S11309C0E095089504D06894B111D9C00895BCD0BD
S11309D088F09F5790F0B92F9927B751A0F0D1F024
S11309E0660F771F881F991F1AF0BA95C9F712C0AE
S11309F0B13081F0C3D0B1E00895C0C0672F782F23
S1130A008827B85F39F0B93FCCF386957795679519
S1130A10B395D9F73EF490958095709561957F4F85
S1130A208F4F9F4F0895E89409C097FB3EF490952B
S1130A308095709561957F4F8F4F9F4F9923A9F0B3
S1130A40F92F96E9BB279395F69587957795679542
S1130A50B795F111F8CFFAF4BB0F11F460FF1BC086
S1130A606F5F7F4F8F4F9F4F16C0882311F096E919
S1130A7011C0772321F09EE8872F762F05C06623C7
S1130A8071F096E8862F70E060E02AF09A95660F80
S1130A90771F881FDAF7880F9695879597F9089539
S1130AA0990F0008550FAA0BE0E8FEEF161617067B
S1130AB0E807F907C0F012161306E407F50798F0E3
S1130AC0621B730B840B950B39F40A2661F0232BFC
S1130AD0242B252B21F408950A2609F4A140A69578
S1130AE08FEF811D811D089597F99F6780E870E05D
S1130AF060E008959FEF80EC089500240A94161690
S1130B00170618060906089500240A9412161306F7
S1130B10140605060895092E0394000C11F4882385
S1130B2052F0BB0F40F4BF2B11F460FF04C06F5FA1
S1130B307F4F8F4F9F4F089557FD9058440F551F77
S1130B4059F05F3F71F04795880F97FB991F61F04B
S1130B509F3F79F087950895121613061406551FC2
S1130B60F2CF4695F1DF08C0161617061806991F2E
S1130B70F1CF86957105610508940895E894BB2723
S1130B8066277727CB0197F908950AD0C4CFB5DF3C
S1130B9028F0BADF18F0952309F0A6CFABCFEFCF3A
S1130BA0CBDFA8F39923D9F35523C9F3950F50E06C
S1130BB0551FAA27EE27FF27BB2700240894679513
S1130BC020F4E20FF31FB41F0A1E220F331F441F29
S1130BD0AA1F6695A9F7779530F4F30FB41F0A1E80
S1130BE0121E08F46395330F441FAA1F221F769523
S1130BF099F7879520F4B40F0A1E121E631F440F41
S1130C00AA1F221F331F8695A9F7862F712D602DE9
S1130C1011249F5750408AF0E1F088234AF0EE0FE8
S1130C20FF1FBB1F661F771F881F91505040A9F7F5
S1130C309E3F510570F058CFA2CF5F3FECF3983E32
S1130C40DCF3869577956795B795F795E7959F5F5C
S1130C50C1F7FE2B880F911D9695879597F90895F6
S1070C60F894FFCF32
S1130C64002D86478941D0BFDA06010039200A0DD8
S1130C742A0048572056657273696F6E20782E785F
S1130C842053572056657273696F6E20322E3000DC
S9030000FC
