S0160000636F6E74726F6C6C65725F6D696E2E7372656327
S113000030C04AC049C048C047C046C045C044C0CB
S113001043C042C041C0DDC23FC03EC03DC03CC041
S11300203BC03AC039C038C037C036C035C034C010
S113003097C232C031C030C02FC02EC052C13CC1A3
S113004089C193C139C1A3C137C1A7C1AFC1CEC151
S113005033C132C131C130C12FC12EC1D0C12CC175
S11300603AC111241FBECFEFD2E0DEBFCDBF11E0F5
S1130070A0E0B1E0E0EEFAE002C005900D92A432F7
S1130080B107D9F721E0A4E2B1E001C01D92A83282
S1130090B207E1F7C5D122C5B3CFCF936230710562
S11300A0E4F0FB013297E80FF91FA2E0B0E00EC0C4
S11300B0C05DC083C4E05695479537952795CA958A
S11300C0D1F7119631976A177B073CF0C22FCF7096
S11300D0CA3070F3C95CC083EDCFFC01E60FF71F93
S11300E031971082CF9108954F925F926F927F92D1
S11300F08F929F92AF92BF92CF92DF92EF92FF9234
S11301000F931F93CF93DF932B013C015A0120E0FF
S113011030E0A90129D387FD6FC08BE2F50180830C
S1130120C12CD12CD0E2ED2ED1E4FD2EC1E0D0E0E3
S113013010E3812E0EE2902EA7019601C301B201B5
S113014013D387FF28C0F501EC0FFD1F80828E01B9
S11301500F5F1F4F20E030E040E251E4C701B601D9
S113016007D36B017C01073011059CF52DEC3CECA9
S11301704CEC5DE3C701B601F7D2811128C0F5014B
S1130180E00FF11F90822296A7019601C301B201EC
S1130190EBD287FDD8CFA7019601C301B201E8D203
S11301A04FD3F501EC0FFD1F20E3260F2083882792
S11301B077FD8095982F77D3A701960124D49B01CE
S11301C0AC01C301B2016BD22B013C01C0CFE801E9
S11301D0B3CFF5011782DF91CF911F910F91FF905B
S11301E0EF90DF90CF90BF90AF909F908F907F90D3
S11301F06F905F904F9008958DE2F501808377FAB8
S1130200709477F870948CCFCF93C82FD89A8AE0E3
S113021090E0D1D18C2F2ED282E090E0CF91CBC14F
S11302200F931F93CF93DF93EC018C0116161706DF
S113023044F4060F171F2CD28993E6DFC017D107A9
S1130240D1F7F8011082DF91CF911F910F9108959A
S11302500F931F93CF93DF93EC01D89A8AE090E039
S1130260AAD188818823A1F08E010F5F1F4FC0E0BF
S1130270D0E000D22196F80181918F018111F9CF4C
S1130280CE01880F991FDF91CF911F910F9193C1D8
S113029080E090E0F8CFCF93DF93CDB7DEB72A9715
S11302A00FB6F894DEBF0FBECDBF90E0FC01E15461
S11302B0F109E331F10560F082E0809324012A968C
S11302C00FB6F894DEBF0FBECDBFDF91CF91089576
S11302D0E25EFF4F099483E597DF81E091E0B8DFA8
S11302E0EECF81E491DF64E070E0CE01019698DF07
S11302F081E091E0ADDFFE0131969E012B5F3F4F1F
S113030080E090E0DC01AC01BD01440F551F661F85
S1130310771F440F551F661F771F440F551F661F15
S1130320771F440F551F661F771F81918A3308F08A
S11303306CC090E0C097AA2797FDA095BA2F842B94
S1130340952BA62BB72BE217F307E9F697709BBD05
S11303508ABDB5CF83E458DF62E070E0CE01019638
S11303605FDF81E091E074DFAACF84E44DDF2AB53A
S11303703BB540E050E065E070E0CE0101968DDED3
S1130380CE01019665DF81E091E062DF98CF86E4DB
S11303903BDF81E091E05CDF92CF88E435DF85E0EC
S11303A091E056DF81E091E053DF89CF89E42CDFCF
S11303B03DD1BC0180E090E074D220E030E040E820
S11303C05AE321D32DEC3CEC4CE85FE31CD320E052
S11303D030E040E05FE363D120E030E048EC52E4F9
S11303E012D3AE014F5F5F4F7FDECACF8AE40CDFCA
S11303F01DD19C0140E050E064E070E0BECF81E597
S113040003DF81E091E024DF5ACF90E0C797AA2769
S113041097FDA095BA2F842B952BA62BB72B93CFA2
S1130420CF93DF93CDB7DEB72A970FB6F894DEBF2C
S11304300FBECDBFF8949FD004D1EDD0789481E065
S11304408ABBD8982091000130E040E050E063E09E
S113045070E0CE01019621DECE010196F9DE81E045
S113046091E0F6DE02E011E00CD18823E9F30DD12E
S113047090912401913049F008F44DC09230A1F7D5
S11304808E3309F445C007DFEFCF90ED980F9A3013
S113049020F09FEB980F9630D8F58983F9D08A83A2
S11304A049814A3308F454C050E047535109662740
S11304B057FD6095762F440F551F661F771F440F15
S11304C0551F661F771F440F551F661F771F440F64
S11304D0551F661F771FC82ED12C8A3368F187E316
S11304E0C81AD108EE24D7FCE094FE2CC42AD52ADD
S11304F0E62AF72AA701960133274427552763E004
S113050070E0CE010196C9DD809100018C1541F0A7
S113051010922401A9CF8C3349F410932401A4CF61
S113052000932401CE01019693DE9ECF1092240104
S113053082E090E040D098CF80E3C81AD108EE243E
S1130540D7FCE094FE2CC42AD52AE62AF72AD2CF77
S113055050E040535109662757FD6095762FABCF85
S11305601F920F920FB60F921124D8980F900FBEBE
S11305700F901F90189510BE81E083BF89B78160EA
S113058089BF12BE20E82FBD8FB582608FBD88E180
S11305908EBD8EB581608EBD1DBC1CBC1BBC1ABC3F
S11305A08FEF97E095BD84BDBA9A80E4809368008C
S11305B0209366000895109227011092260110924C
S11305C02501209125013091260128173907CCF304
S11305D008951F920F920FB60F9211248F939F9339
S11305E0809127018F5F80932701809127018430B8
S11305F059F41092270180912501909126010196CA
S113060090932601809325019F918F910F900FBEA7
S11306100F901F9018958BE089B981E08093610059
S113062080E288B986E085B92F9A08952E9A2E998A
S1130630FECF26B187B190E0982F8827820F911DB5
S11306400895109282008CE08093810082E0809370
S1130650860088E58093850086E0809384008091FD
S1130660860087FF06C0809180008091860087FD08
S1130670FACF08959091860095FFFCCF8093800077
S1130680089580918600807808958091800008956F
S11306908091860087FFFCCF809180000895505898
S11306A0BB27AA270ED075C166D130F06BD120F0DC
S11306B031F49F3F11F41EF45BC10EF4E095E7FBA7
S11306C051C1E92F77D180F3BA1762077307840702
S11306D0950718F071F49EF58FC10EF4E0950B2E7A
S11306E0BA2FA02D0B01B90190010C01CA01A00180
S11306F01124FF27591B99F0593F50F4503E68F1DB
S11307001A16F040A22F232F342F4427585FF3CF1B
S1130710469537952795A795F0405395C9F77EF4EC
S11307201F16BA0B620B730B840BBAF09150A1F035
S1130730FF0FBB1F661F771F881FC2F70EC0BA0FBB
S1130740621F731F841F48F4879577956795B79543
S1130750F7959E3F08F0B3CF9395880F08F099273B
S1130760EE0F979587950895D9D008F481E0089500
S11307700CD00FC107D140F0FED030F021F45F3F20
S113078019F0F0C0511139C1F3C014D198F3992371
S1130790C9F35523B1F3951B550BBB27AA27621741
S11307A07307840738F09F5F5F4F220F331F441F86
S11307B0AA1FA9F333D00E2E3AF0E0E830D09150BE
S11307C05040E695001CCAF729D0FE2F27D0660FAB
S11307D0771F881FBB1F261737074807AB07B0E8EA
S11307E009F0BB0B802DBF01FF2793585F4F2AF000
S11307F09E3F510568F0B6C000C15F3FECF3983EE0
S1130800DCF3869577956795B795F7959F5FC9F75C
S1130810880F911D9695879597F90895E1E0660FE5
S1130820771F881FBB1F621773078407BA0720F05E
S1130830621B730B840BBA0BEE1F88F7E0950895C7
S113084004D06894B111D9C00895BCD088F09F57E2
S113085090F0B92F9927B751A0F0D1F0660F771F08
S1130860881F991F1AF0BA95C9F712C0B13081F0E8
S1130870C3D0B1E00895C0C0672F782F8827B85F30
S113088039F0B93FCCF3869577956795B395D9F749
S11308903EF490958095709561957F4F8F4F9F4F53
S11308A00895E89409C097FB3EF49095809570955F
S11308B061957F4F8F4F9F4F9923A9F0F92F96E9A8
S11308C0BB279395F695879577956795B795F1111D
S11308D0F8CFFAF4BB0F11F460FF1BC06F5F7F4FBA
S11308E08F4F9F4F16C0882311F096E911C07723CC
S11308F021F09EE8872F762F05C0662371F096E8D5
S1130900862F70E060E02AF09A95660F771F881FA3
S1130910DAF7880F9695879597F90895990F000847
S1130920550FAA0BE0E8FEEF16161706E807F907BD
S1130930C0F012161306E407F50798F0621B730B58
S1130940840B950B39F40A2661F0232B242B252BD9
S113095021F408950A2609F4A140A6958FEF811D7C
S1130960811D089597F99F6780E870E060E008951D
S11309709FEF80EC089500240A94161617061806B3
S11309800906089500240A9412161306140605068F
S11309900895092E0394000C11F4882352F0BB0F20
S11309A040F4BF2B11F460FF04C06F5F7F4F8F4F83
S11309B09F4F089557FD9058440F551F59F05F3FBE
S11309C071F04795880F97FB991F61F09F3F79F06D
S11309D087950895121613061406551FF2CF4695EF
S11309E0F1DF08C0161617061806991FF1CF869571
S11309F07105610508940895E894BB276627772755
S1130A00CB0197F908950AD0C4CFB5DF28F0BADF37
S1130A1018F0952309F0A6CFABCFEFCFCBDFA8F327
S1130A209923D9F35523C9F3950F50E0551FAA27ED
S1130A30EE27FF27BB2700240894679520F4E20FD4
S1130A40F31FB41F0A1E220F331F441FAA1F6695EB
S1130A50A9F7779530F4F30FB41F0A1E121E08F499
S1130A606395330F441FAA1F221F769599F7879524
S1130A7020F4B40F0A1E121E631F440FAA1F221F64
S1130A80331F8695A9F7862F712D602D11249F574A
S1130A9050408AF0E1F088234AF0EE0FFF1FBB1F9D
S1130AA0661F771F881F91505040A9F79E3F51053C
S1130AB070F058CFA2CF5F3FECF3983EDCF38695FD
S1130AC077956795B795F795E7959F5FC1F7FE2BE7
S1130AD0880F911D9695879597F90895F894FFCFFF
S1130AE0200A0D2A0048572056657273696F6E20DC
S1130AF0782E782053572056657273696F6E2032B2
S1070B002E3000008F
S9030000FC
